{
  "contractName": "Auction",
  "abi": [
    {
      "constant": true,
      "inputs": [
        {
          "name": "",
          "type": "uint256"
        }
      ],
      "name": "items",
      "outputs": [
        {
          "name": "id",
          "type": "uint256"
        },
        {
          "name": "name",
          "type": "string"
        },
        {
          "name": "description",
          "type": "string"
        },
        {
          "name": "imgPath",
          "type": "string"
        },
        {
          "name": "inProgress",
          "type": "bool"
        },
        {
          "name": "owner",
          "type": "address"
        },
        {
          "name": "askingPrice",
          "type": "uint256"
        },
        {
          "name": "updatePrice",
          "type": "uint256"
        },
        {
          "name": "highestBidder",
          "type": "address"
        },
        {
          "name": "bidPrice",
          "type": "uint256"
        }
      ],
      "payable": false,
      "stateMutability": "view",
      "type": "function",
      "signature": "0xbfb231d2"
    },
    {
      "constant": true,
      "inputs": [],
      "name": "itemsCount",
      "outputs": [
        {
          "name": "",
          "type": "uint256"
        }
      ],
      "payable": false,
      "stateMutability": "view",
      "type": "function",
      "signature": "0xe2c03ace"
    },
    {
      "inputs": [],
      "payable": false,
      "stateMutability": "nonpayable",
      "type": "constructor",
      "signature": "constructor"
    },
    {
      "anonymous": false,
      "inputs": [],
      "name": "itemEvent",
      "type": "event",
      "signature": "0x0a28494e07e4be88b100cf2f90516662a891a793b413ebfd087888ac4daf206a"
    },
    {
      "constant": false,
      "inputs": [
        {
          "name": "_id",
          "type": "uint256"
        }
      ],
      "name": "closeBid",
      "outputs": [],
      "payable": false,
      "stateMutability": "nonpayable",
      "type": "function",
      "signature": "0xf6a89810"
    },
    {
      "constant": false,
      "inputs": [
        {
          "name": "_id",
          "type": "uint256"
        }
      ],
      "name": "bidItem",
      "outputs": [],
      "payable": false,
      "stateMutability": "nonpayable",
      "type": "function",
      "signature": "0x36d64076"
    },
    {
      "constant": false,
      "inputs": [
        {
          "name": "_name",
          "type": "string"
        },
        {
          "name": "_description",
          "type": "string"
        },
        {
          "name": "_imgPath",
          "type": "string"
        },
        {
          "name": "_askingPrice",
          "type": "uint256"
        },
        {
          "name": "_updatePrice",
          "type": "uint256"
        }
      ],
      "name": "newItem",
      "outputs": [],
      "payable": false,
      "stateMutability": "nonpayable",
      "type": "function",
      "signature": "0xc906a5de"
    }
  ],
  "bytecode": "0x60806040523480156200001157600080fd5b50620000d46040805190810160405280600881526020017f4950686f6e6520580000000000000000000000000000000000000000000000008152506040805190810160405280600881526020017f4950686f6e6520580000000000000000000000000000000000000000000000008152506040805190810160405280600a81526020017f696d672f69312e706e670000000000000000000000000000000000000000000081525060006103e860646200019c640100000000026401000000009004565b620001966040805190810160405280600581526020017f57617463680000000000000000000000000000000000000000000000000000008152506040805190810160405280600581526020017f57617463680000000000000000000000000000000000000000000000000000008152506040805190810160405280600a81526020017f696d672f69322e706e670000000000000000000000000000000000000000000081525060006107d060646200019c640100000000026401000000009004565b62000429565b60008081548092919060010191905055506101406040519081016040528060005481526020018781526020018681526020018581526020016001151581526020018473ffffffffffffffffffffffffffffffffffffffff168152602001838152602001828152602001600073ffffffffffffffffffffffffffffffffffffffff168152602001838152506001600080548152602001908152602001600020600082015181600001556020820151816001019080519060200190620002629291906200037a565b506040820151816002019080519060200190620002819291906200037a565b506060820151816003019080519060200190620002a09291906200037a565b5060808201518160040160006101000a81548160ff02191690831515021790555060a08201518160040160016101000a81548173ffffffffffffffffffffffffffffffffffffffff021916908373ffffffffffffffffffffffffffffffffffffffff16021790555060c0820151816005015560e082015181600601556101008201518160070160006101000a81548173ffffffffffffffffffffffffffffffffffffffff021916908373ffffffffffffffffffffffffffffffffffffffff1602179055506101208201518160080155905050505050505050565b828054600181600116156101000203166002900490600052602060002090601f016020900481019282601f10620003bd57805160ff1916838001178555620003ee565b82800160010185558215620003ee579182015b82811115620003ed578251825591602001919060010190620003d0565b5b509050620003fd919062000401565b5090565b6200042691905b808211156200042257600081600090555060010162000408565b5090565b90565b610ea280620004396000396000f3fe60806040526004361061006d576000357c0100000000000000000000000000000000000000000000000000000000900463ffffffff16806336d6407614610072578063bfb231d2146100ad578063c906a5de146102c6578063e2c03ace146104d0578063f6a89810146104fb575b600080fd5b34801561007e57600080fd5b506100ab6004803603602081101561009557600080fd5b8101908080359060200190929190505050610536565b005b3480156100b957600080fd5b506100e6600480360360208110156100d057600080fd5b8101908080359060200190929190505050610787565b604051808b81526020018060200180602001806020018a1515151581526020018973ffffffffffffffffffffffffffffffffffffffff1673ffffffffffffffffffffffffffffffffffffffff1681526020018881526020018781526020018673ffffffffffffffffffffffffffffffffffffffff1673ffffffffffffffffffffffffffffffffffffffff16815260200185815260200184810384528d818151815260200191508051906020019080838360005b838110156101b4578082015181840152602081019050610199565b50505050905090810190601f1680156101e15780820380516001836020036101000a031916815260200191505b5084810383528c818151815260200191508051906020019080838360005b8381101561021a5780820151818401526020810190506101ff565b50505050905090810190601f1680156102475780820380516001836020036101000a031916815260200191505b5084810382528b818151815260200191508051906020019080838360005b83811015610280578082015181840152602081019050610265565b50505050905090810190601f1680156102ad5780820380516001836020036101000a031916815260200191505b509d505050505050505050505050505060405180910390f35b3480156102d257600080fd5b506104ce600480360360a08110156102e957600080fd5b810190808035906020019064010000000081111561030657600080fd5b82018360208201111561031857600080fd5b8035906020019184600183028401116401000000008311171561033a57600080fd5b91908080601f016020809104026020016040519081016040528093929190818152602001838380828437600081840152601f19601f8201169050808301925050505050505091929192908035906020019064010000000081111561039d57600080fd5b8201836020820111156103af57600080fd5b803590602001918460018302840111640100000000831117156103d157600080fd5b91908080601f016020809104026020016040519081016040528093929190818152602001838380828437600081840152601f19601f8201169050808301925050505050505091929192908035906020019064010000000081111561043457600080fd5b82018360208201111561044657600080fd5b8035906020019184600183028401116401000000008311171561046857600080fd5b91908080601f016020809104026020016040519081016040528093929190818152602001838380828437600081840152601f19601f82011690508083019250505050505050919291929080359060200190929190803590602001909291905050506109f0565b005b3480156104dc57600080fd5b506104e5610a31565b6040518082815260200191505060405180910390f35b34801561050757600080fd5b506105346004803603602081101561051e57600080fd5b8101908080359060200190929190505050610a37565b005b8060008015156001600084815260200190815260200160002060040160019054906101000a900473ffffffffffffffffffffffffffffffffffffffff1673ffffffffffffffffffffffffffffffffffffffff163373ffffffffffffffffffffffffffffffffffffffff1614151514816105e4576040805190810160405280600d81526020017f4e6f7420666f72206f776e65720000000000000000000000000000000000000081525061061b565b6040805190810160405280600e81526020017f466f72206f776e6572206f6e6c790000000000000000000000000000000000008152505b9015156106c3576040517f08c379a00000000000000000000000000000000000000000000000000000000081526004018080602001828103825283818151815260200191508051906020019080838360005b8381101561068857808201518184015260208101905061066d565b50505050905090810190601f1680156106b55780820380516001836020036101000a031916815260200191505b509250505060405180910390fd5b506001600084815260200190815260200160002060040160009054906101000a900460ff1615156106f357600080fd5b60016000848152602001908152602001600020600601546001600085815260200190815260200160002060080160008282540192505081905550336001600085815260200190815260200160002060070160006101000a81548173ffffffffffffffffffffffffffffffffffffffff021916908373ffffffffffffffffffffffffffffffffffffffff160217905550505050565b6001602052806000526040600020600091509050806000015490806001018054600181600116156101000203166002900480601f0160208091040260200160405190810160405280929190818152602001828054600181600116156101000203166002900480156108395780601f1061080e57610100808354040283529160200191610839565b820191906000526020600020905b81548152906001019060200180831161081c57829003601f168201915b505050505090806002018054600181600116156101000203166002900480601f0160208091040260200160405190810160405280929190818152602001828054600181600116156101000203166002900480156108d75780601f106108ac576101008083540402835291602001916108d7565b820191906000526020600020905b8154815290600101906020018083116108ba57829003601f168201915b505050505090806003018054600181600116156101000203166002900480601f0160208091040260200160405190810160405280929190818152602001828054600181600116156101000203166002900480156109755780601f1061094a57610100808354040283529160200191610975565b820191906000526020600020905b81548152906001019060200180831161095857829003601f168201915b5050505050908060040160009054906101000a900460ff16908060040160019054906101000a900473ffffffffffffffffffffffffffffffffffffffff16908060050154908060060154908060070160009054906101000a900473ffffffffffffffffffffffffffffffffffffffff1690806008015490508a565b6109fe858585338686610bf9565b7f0a28494e07e4be88b100cf2f90516662a891a793b413ebfd087888ac4daf206a60405160405180910390a15050505050565b60005481565b8060018015156001600084815260200190815260200160002060040160019054906101000a900473ffffffffffffffffffffffffffffffffffffffff1673ffffffffffffffffffffffffffffffffffffffff163373ffffffffffffffffffffffffffffffffffffffff161415151481610ae5576040805190810160405280600d81526020017f4e6f7420666f72206f776e657200000000000000000000000000000000000000815250610b1c565b6040805190810160405280600e81526020017f466f72206f776e6572206f6e6c790000000000000000000000000000000000008152505b901515610bc4576040517f08c379a00000000000000000000000000000000000000000000000000000000081526004018080602001828103825283818151815260200191508051906020019080838360005b83811015610b89578082015181840152602081019050610b6e565b50505050905090810190601f168015610bb65780820380516001836020036101000a031916815260200191505b509250505060405180910390fd5b5060006001600085815260200190815260200160002060040160006101000a81548160ff021916908315150217905550505050565b60008081548092919060010191905055506101406040519081016040528060005481526020018781526020018681526020018581526020016001151581526020018473ffffffffffffffffffffffffffffffffffffffff168152602001838152602001828152602001600073ffffffffffffffffffffffffffffffffffffffff168152602001838152506001600080548152602001908152602001600020600082015181600001556020820151816001019080519060200190610cbd929190610dd1565b506040820151816002019080519060200190610cda929190610dd1565b506060820151816003019080519060200190610cf7929190610dd1565b5060808201518160040160006101000a81548160ff02191690831515021790555060a08201518160040160016101000a81548173ffffffffffffffffffffffffffffffffffffffff021916908373ffffffffffffffffffffffffffffffffffffffff16021790555060c0820151816005015560e082015181600601556101008201518160070160006101000a81548173ffffffffffffffffffffffffffffffffffffffff021916908373ffffffffffffffffffffffffffffffffffffffff1602179055506101208201518160080155905050505050505050565b828054600181600116156101000203166002900490600052602060002090601f016020900481019282601f10610e1257805160ff1916838001178555610e40565b82800160010185558215610e40579182015b82811115610e3f578251825591602001919060010190610e24565b5b509050610e4d9190610e51565b5090565b610e7391905b80821115610e6f576000816000905550600101610e57565b5090565b9056fea165627a7a723058208047704b7caca6a09e308b2e42de1830c328d19bc51513c8dd79b0ac126e6cda0029",
  "source": "pragma solidity ^0.5.0;\n\ncontract Auction {\n    \n    struct Item {\n        uint id;                            //Item's ID\n        string name;                        //Item's name\n        string description;                 //Item's description\n        string imgPath;                     //Item's image path\n        bool inProgress;                    //Is auction in progress\n        \n        address owner;\n        uint askingPrice;\n        uint updatePrice;\n        \n        address highestBidder;\n        uint bidPrice;\n        \n    }\n    \n    uint public itemsCount;\n    mapping(uint => Item) public items;\n    \n    event itemEvent ();\n    \n    // Constructor\n    constructor() public {\n        addItem(\"IPhone X\", \"IPhone X\", \"img/i1.png\", address(0), 1000, 100);\n        addItem(\"Watch\", \"Watch\", \"img/i2.png\", address(0), 2000, 100);\n    }\n\n    function addItem(string memory _name, string memory _description, string memory _imgPath, address _owner, uint _askingPrice, uint _updatePrice) private {\n        itemsCount ++;\n        items[itemsCount] = Item(itemsCount, _name, _description, _imgPath, true, _owner, _askingPrice, _updatePrice, address(0), _askingPrice);\n    }\n    \n    modifier checkUserType(uint _id, bool ownerOrBidder) {                        //true for owner and false bidder\n        require ((msg.sender == items[_id].owner) == ownerOrBidder, ownerOrBidder ? \"For owner only\" : \"Not for owner\");\n        _;\n    }\n    \n    function closeBid(uint _id) checkUserType(_id, true) public{\n        items[_id].inProgress = false;\n    }\n    \n    function bidItem(uint _id) checkUserType(_id, false) public{\n   \n        require(items[_id].inProgress);\n        //require(_bidPrice > items[_id].askingPrice && _bidPrice > items[_id].bidPrice);\n        \n        items[_id].bidPrice += items[_id].updatePrice;\n        items[_id].highestBidder = msg.sender;\n   //     emit itemEvent();\n    \n    }\n    \n    function newItem(string memory _name, string memory _description, string memory _imgPath, uint _askingPrice, uint _updatePrice) public {\n        addItem(_name, _description, _imgPath, msg.sender, _askingPrice, _updatePrice);\n        emit itemEvent();\n    }\n    \n    \n}",
  "sourcePath": "/Users/rayso/Desktop/Dapp/auction/contracts/Auction.sol",
  "compiler": {
    "name": "solc",
    "version": "0.5.0+commit.1d4f565a.Emscripten.clang"
  },
  "schemaVersion": "3.0.2",
  "updatedAt": "2019-03-28T06:54:52.173Z",
  "devdoc": {
    "methods": {}
  },
  "userdoc": {
    "methods": {}
  }
}