{
  "contractName": "Auction",
  "abi": [
    {
      "constant": true,
      "inputs": [
        {
          "name": "",
          "type": "uint256"
        }
      ],
      "name": "items",
      "outputs": [
        {
          "name": "id",
          "type": "uint256"
        },
        {
          "name": "name",
          "type": "string"
        },
        {
          "name": "imgPath",
          "type": "string"
        },
        {
          "name": "askingPrice",
          "type": "uint256"
        },
        {
          "name": "bidPrice",
          "type": "uint256"
        },
        {
          "name": "highestBidder",
          "type": "address"
        },
        {
          "name": "inProgress",
          "type": "bool"
        }
      ],
      "payable": false,
      "stateMutability": "view",
      "type": "function",
      "signature": "0xbfb231d2"
    },
    {
      "constant": true,
      "inputs": [],
      "name": "itemsCount",
      "outputs": [
        {
          "name": "",
          "type": "uint256"
        }
      ],
      "payable": false,
      "stateMutability": "view",
      "type": "function",
      "signature": "0xe2c03ace"
    },
    {
      "inputs": [],
      "payable": false,
      "stateMutability": "nonpayable",
      "type": "constructor",
      "signature": "constructor"
    },
    {
      "constant": false,
      "inputs": [
        {
          "name": "_name",
          "type": "string"
        },
        {
          "name": "_imgPath",
          "type": "string"
        },
        {
          "name": "_askingPrice",
          "type": "uint256"
        }
      ],
      "name": "addItem",
      "outputs": [],
      "payable": false,
      "stateMutability": "nonpayable",
      "type": "function",
      "signature": "0x64432eb8"
    },
    {
      "constant": false,
      "inputs": [
        {
          "name": "_id",
          "type": "uint256"
        },
        {
          "name": "_bidPrice",
          "type": "uint256"
        }
      ],
      "name": "bid",
      "outputs": [],
      "payable": false,
      "stateMutability": "nonpayable",
      "type": "function",
      "signature": "0x598647f8"
    }
  ],
  "bytecode": "0x608060405234801561001057600080fd5b506100976040805190810160405280600681526020017f4974656d203100000000000000000000000000000000000000000000000000008152506040805190810160405280600781526020017f696d6750617468000000000000000000000000000000000000000000000000008152506103e8610122640100000000026401000000009004565b61011d6040805190810160405280600681526020017f4974656d203200000000000000000000000000000000000000000000000000008152506040805190810160405280600781526020017f696d6750617468000000000000000000000000000000000000000000000000008152506107d0610122640100000000026401000000009004565b610304565b600080815480929190600101919050555060e060405190810160405280600054815260200184815260200183815260200182815260200160008152602001600073ffffffffffffffffffffffffffffffffffffffff1681526020016001151581525060016000805481526020019081526020016000206000820151816000015560208201518160010190805190602001906101be92919061025f565b5060408201518160020190805190602001906101db92919061025f565b50606082015181600301556080820151816004015560a08201518160050160006101000a81548173ffffffffffffffffffffffffffffffffffffffff021916908373ffffffffffffffffffffffffffffffffffffffff16021790555060c08201518160050160146101000a81548160ff021916908315150217905550905050505050565b828054600181600116156101000203166002900490600052602060002090601f016020900481019282601f106102a057805160ff19168380011785556102ce565b828001600101855582156102ce579182015b828111156102cd5782518255916020019190600101906102b2565b5b5090506102db91906102df565b5090565b61030191905b808211156102fd5760008160009055506001016102e5565b5090565b90565b61084e806103136000396000f3fe608060405260043610610062576000357c0100000000000000000000000000000000000000000000000000000000900463ffffffff168063598647f81461006757806364432eb8146100ac578063bfb231d214610215578063e2c03ace14610388575b600080fd5b34801561007357600080fd5b506100aa6004803603604081101561008a57600080fd5b8101908080359060200190929190803590602001909291905050506103b3565b005b3480156100b857600080fd5b50610213600480360360608110156100cf57600080fd5b81019080803590602001906401000000008111156100ec57600080fd5b8201836020820111156100fe57600080fd5b8035906020019184600183028401116401000000008311171561012057600080fd5b91908080601f016020809104026020016040519081016040528093929190818152602001838380828437600081840152601f19601f8201169050808301925050505050505091929192908035906020019064010000000081111561018357600080fd5b82018360208201111561019557600080fd5b803590602001918460018302840111640100000000831117156101b757600080fd5b91908080601f016020809104026020016040519081016040528093929190818152602001838380828437600081840152601f19601f8201169050808301925050505050505091929192908035906020019092919050505061049b565b005b34801561022157600080fd5b5061024e6004803603602081101561023857600080fd5b81019080803590602001909291905050506105d8565b6040518088815260200180602001806020018781526020018681526020018573ffffffffffffffffffffffffffffffffffffffff1673ffffffffffffffffffffffffffffffffffffffff16815260200184151515158152602001838103835289818151815260200191508051906020019080838360005b838110156102e05780820151818401526020810190506102c5565b50505050905090810190601f16801561030d5780820380516001836020036101000a031916815260200191505b50838103825288818151815260200191508051906020019080838360005b8381101561034657808201518184015260208101905061032b565b50505050905090810190601f1680156103735780820380516001836020036101000a031916815260200191505b50995050505050505050505060405180910390f35b34801561039457600080fd5b5061039d610777565b6040518082815260200191505060405180910390f35b6001600083815260200190815260200160002060050160149054906101000a900460ff1615156103e257600080fd5b60016000838152602001908152602001600020600301548111801561041c5750600160008381526020019081526020016000206004015481115b151561042757600080fd5b806001600084815260200190815260200160002060040181905550336001600084815260200190815260200160002060050160006101000a81548173ffffffffffffffffffffffffffffffffffffffff021916908373ffffffffffffffffffffffffffffffffffffffff1602179055505050565b600080815480929190600101919050555060e060405190810160405280600054815260200184815260200183815260200182815260200160008152602001600073ffffffffffffffffffffffffffffffffffffffff16815260200160011515815250600160008054815260200190815260200160002060008201518160000155602082015181600101908051906020019061053792919061077d565b50604082015181600201908051906020019061055492919061077d565b50606082015181600301556080820151816004015560a08201518160050160006101000a81548173ffffffffffffffffffffffffffffffffffffffff021916908373ffffffffffffffffffffffffffffffffffffffff16021790555060c08201518160050160146101000a81548160ff021916908315150217905550905050505050565b6001602052806000526040600020600091509050806000015490806001018054600181600116156101000203166002900480601f01602080910402602001604051908101604052809291908181526020018280546001816001161561010002031660029004801561068a5780601f1061065f5761010080835404028352916020019161068a565b820191906000526020600020905b81548152906001019060200180831161066d57829003601f168201915b505050505090806002018054600181600116156101000203166002900480601f0160208091040260200160405190810160405280929190818152602001828054600181600116156101000203166002900480156107285780601f106106fd57610100808354040283529160200191610728565b820191906000526020600020905b81548152906001019060200180831161070b57829003601f168201915b5050505050908060030154908060040154908060050160009054906101000a900473ffffffffffffffffffffffffffffffffffffffff16908060050160149054906101000a900460ff16905087565b60005481565b828054600181600116156101000203166002900490600052602060002090601f016020900481019282601f106107be57805160ff19168380011785556107ec565b828001600101855582156107ec579182015b828111156107eb5782518255916020019190600101906107d0565b5b5090506107f991906107fd565b5090565b61081f91905b8082111561081b576000816000905550600101610803565b5090565b9056fea165627a7a72305820f64fda32c0f78ad6f1515a6ff0026efd9541fec352a1a0d4f4fe1417b4a1460c0029",
  "source": "pragma solidity ^0.5.0;\n\ncontract Auction {\n    // Read/write item\n    \n    struct Item {\n        uint id;\n        string name;\n        string imgPath;\n        uint askingPrice;\n        uint bidPrice;\n        address highestBidder;\n        bool inProgress;\n    }\n    \n    uint public itemsCount;\n    \n    mapping(uint => Item) public items;\n    \n    // Constructor\n    constructor() public {\n        addItem(\"Item 1\", \"imgPath\", 1000);\n        addItem(\"Item 2\", \"imgPath\", 2000);\n    }\n    \n    function addItem(string memory _name, string memory _imgPath, uint _askingPrice) public {\n        itemsCount ++;\n        items[itemsCount] = Item(itemsCount, _name, _imgPath, _askingPrice, 0, address(0), true);\n    }\n    \n    function bid(uint _id, uint _bidPrice) public{\n    \n        require(items[_id].inProgress);\n        require(_bidPrice > items[_id].askingPrice && _bidPrice > items[_id].bidPrice);\n        \n        items[_id].bidPrice = _bidPrice;\n        items[_id].highestBidder = msg.sender;\n    \n    }\n}",
  "sourcePath": "/Users/rayso/Desktop/Dapp/auction/contracts/Auction.sol",
  "compiler": {
    "name": "solc",
    "version": "0.5.0+commit.1d4f565a.Emscripten.clang"
  },
  "schemaVersion": "3.0.2",
  "updatedAt": "2019-03-12T05:23:36.128Z",
  "devdoc": {
    "methods": {}
  },
  "userdoc": {
    "methods": {}
  }
}