{
  "contractName": "Auction",
  "abi": [
    {
      "constant": true,
      "inputs": [
        {
          "name": "",
          "type": "uint256"
        }
      ],
      "name": "items",
      "outputs": [
        {
          "name": "id",
          "type": "uint256"
        },
        {
          "name": "name",
          "type": "string"
        },
        {
          "name": "description",
          "type": "string"
        },
        {
          "name": "imgPath",
          "type": "string"
        },
        {
          "name": "inProgress",
          "type": "bool"
        },
        {
          "name": "owner",
          "type": "address"
        },
        {
          "name": "askingPrice",
          "type": "uint256"
        },
        {
          "name": "updatePrice",
          "type": "uint256"
        },
        {
          "name": "highestBidder",
          "type": "address"
        },
        {
          "name": "bidPrice",
          "type": "uint256"
        }
      ],
      "payable": false,
      "stateMutability": "view",
      "type": "function",
      "signature": "0xbfb231d2"
    },
    {
      "constant": true,
      "inputs": [],
      "name": "itemsCount",
      "outputs": [
        {
          "name": "",
          "type": "uint256"
        }
      ],
      "payable": false,
      "stateMutability": "view",
      "type": "function",
      "signature": "0xe2c03ace"
    },
    {
      "inputs": [],
      "payable": false,
      "stateMutability": "nonpayable",
      "type": "constructor",
      "signature": "constructor"
    },
    {
      "anonymous": false,
      "inputs": [],
      "name": "addItemEvent",
      "type": "event",
      "signature": "0x0dd3c32e9430559c05eea9014ab01202ea4caf1f075a34cd4aa28a52bc48a3c8"
    },
    {
      "constant": false,
      "inputs": [
        {
          "name": "_id",
          "type": "uint256"
        }
      ],
      "name": "closeBid",
      "outputs": [],
      "payable": false,
      "stateMutability": "nonpayable",
      "type": "function",
      "signature": "0xf6a89810"
    },
    {
      "constant": false,
      "inputs": [
        {
          "name": "_id",
          "type": "uint256"
        }
      ],
      "name": "bid",
      "outputs": [],
      "payable": false,
      "stateMutability": "nonpayable",
      "type": "function",
      "signature": "0x454a2ab3"
    },
    {
      "constant": false,
      "inputs": [
        {
          "name": "_name",
          "type": "string"
        },
        {
          "name": "_description",
          "type": "string"
        },
        {
          "name": "_imgPath",
          "type": "string"
        },
        {
          "name": "_askingPrice",
          "type": "uint256"
        },
        {
          "name": "_updatePrice",
          "type": "uint256"
        }
      ],
      "name": "newItem",
      "outputs": [],
      "payable": false,
      "stateMutability": "nonpayable",
      "type": "function",
      "signature": "0xc906a5de"
    }
  ],
  "bytecode": "0x60806040523480156200001157600080fd5b50620000d46040805190810160405280600881526020017f4950686f6e6520580000000000000000000000000000000000000000000000008152506040805190810160405280600881526020017f4950686f6e6520580000000000000000000000000000000000000000000000008152506040805190810160405280600a81526020017f696d672f69312e706e670000000000000000000000000000000000000000000081525060006103e860646200019c640100000000026401000000009004565b620001966040805190810160405280600581526020017f57617463680000000000000000000000000000000000000000000000000000008152506040805190810160405280600581526020017f57617463680000000000000000000000000000000000000000000000000000008152506040805190810160405280600a81526020017f696d672f69322e706e670000000000000000000000000000000000000000000081525060006107d060646200019c640100000000026401000000009004565b62000429565b60008081548092919060010191905055506101406040519081016040528060005481526020018781526020018681526020018581526020016001151581526020018473ffffffffffffffffffffffffffffffffffffffff168152602001838152602001828152602001600073ffffffffffffffffffffffffffffffffffffffff168152602001838152506001600080548152602001908152602001600020600082015181600001556020820151816001019080519060200190620002629291906200037a565b506040820151816002019080519060200190620002819291906200037a565b506060820151816003019080519060200190620002a09291906200037a565b5060808201518160040160006101000a81548160ff02191690831515021790555060a08201518160040160016101000a81548173ffffffffffffffffffffffffffffffffffffffff021916908373ffffffffffffffffffffffffffffffffffffffff16021790555060c0820151816005015560e082015181600601556101008201518160070160006101000a81548173ffffffffffffffffffffffffffffffffffffffff021916908373ffffffffffffffffffffffffffffffffffffffff1602179055506101208201518160080155905050505050505050565b828054600181600116156101000203166002900490600052602060002090601f016020900481019282601f10620003bd57805160ff1916838001178555620003ee565b82800160010185558215620003ee579182015b82811115620003ed578251825591602001919060010190620003d0565b5b509050620003fd919062000401565b5090565b6200042691905b808211156200042257600081600090555060010162000408565b5090565b90565b610bf580620004396000396000f3fe60806040526004361061006d576000357c0100000000000000000000000000000000000000000000000000000000900463ffffffff168063454a2ab314610072578063bfb231d2146100ad578063c906a5de146102c6578063e2c03ace146104d0578063f6a89810146104fb575b600080fd5b34801561007e57600080fd5b506100ab6004803603602081101561009557600080fd5b8101908080359060200190929190505050610536565b005b3480156100b957600080fd5b506100e6600480360360208110156100d057600080fd5b81019080803590602001909291905050506105f7565b604051808b81526020018060200180602001806020018a1515151581526020018973ffffffffffffffffffffffffffffffffffffffff1673ffffffffffffffffffffffffffffffffffffffff1681526020018881526020018781526020018673ffffffffffffffffffffffffffffffffffffffff1673ffffffffffffffffffffffffffffffffffffffff16815260200185815260200184810384528d818151815260200191508051906020019080838360005b838110156101b4578082015181840152602081019050610199565b50505050905090810190601f1680156101e15780820380516001836020036101000a031916815260200191505b5084810383528c818151815260200191508051906020019080838360005b8381101561021a5780820151818401526020810190506101ff565b50505050905090810190601f1680156102475780820380516001836020036101000a031916815260200191505b5084810382528b818151815260200191508051906020019080838360005b83811015610280578082015181840152602081019050610265565b50505050905090810190601f1680156102ad5780820380516001836020036101000a031916815260200191505b509d505050505050505050505050505060405180910390f35b3480156102d257600080fd5b506104ce600480360360a08110156102e957600080fd5b810190808035906020019064010000000081111561030657600080fd5b82018360208201111561031857600080fd5b8035906020019184600183028401116401000000008311171561033a57600080fd5b91908080601f016020809104026020016040519081016040528093929190818152602001838380828437600081840152601f19601f8201169050808301925050505050505091929192908035906020019064010000000081111561039d57600080fd5b8201836020820111156103af57600080fd5b803590602001918460018302840111640100000000831117156103d157600080fd5b91908080601f016020809104026020016040519081016040528093929190818152602001838380828437600081840152601f19601f8201169050808301925050505050505091929192908035906020019064010000000081111561043457600080fd5b82018360208201111561044657600080fd5b8035906020019184600183028401116401000000008311171561046857600080fd5b91908080601f016020809104026020016040519081016040528093929190818152602001838380828437600081840152601f19601f8201169050808301925050505050505091929192908035906020019092919080359060200190929190505050610860565b005b3480156104dc57600080fd5b506104e56108a1565b6040518082815260200191505060405180910390f35b34801561050757600080fd5b506105346004803603602081101561051e57600080fd5b81019080803590602001909291905050506108a7565b005b6001600082815260200190815260200160002060040160009054906101000a900460ff16151561056557600080fd5b60016000828152602001908152602001600020600601546001600083815260200190815260200160002060080160008282540192505081905550336001600083815260200190815260200160002060070160006101000a81548173ffffffffffffffffffffffffffffffffffffffff021916908373ffffffffffffffffffffffffffffffffffffffff16021790555050565b6001602052806000526040600020600091509050806000015490806001018054600181600116156101000203166002900480601f0160208091040260200160405190810160405280929190818152602001828054600181600116156101000203166002900480156106a95780601f1061067e576101008083540402835291602001916106a9565b820191906000526020600020905b81548152906001019060200180831161068c57829003601f168201915b505050505090806002018054600181600116156101000203166002900480601f0160208091040260200160405190810160405280929190818152602001828054600181600116156101000203166002900480156107475780601f1061071c57610100808354040283529160200191610747565b820191906000526020600020905b81548152906001019060200180831161072a57829003601f168201915b505050505090806003018054600181600116156101000203166002900480601f0160208091040260200160405190810160405280929190818152602001828054600181600116156101000203166002900480156107e55780601f106107ba576101008083540402835291602001916107e5565b820191906000526020600020905b8154815290600101906020018083116107c857829003601f168201915b5050505050908060040160009054906101000a900460ff16908060040160019054906101000a900473ffffffffffffffffffffffffffffffffffffffff16908060050154908060060154908060070160009054906101000a900473ffffffffffffffffffffffffffffffffffffffff1690806008015490508a565b61086e85858533868661094c565b7f0dd3c32e9430559c05eea9014ab01202ea4caf1f075a34cd4aa28a52bc48a3c860405160405180910390a15050505050565b60005481565b806001600082815260200190815260200160002060040160019054906101000a900473ffffffffffffffffffffffffffffffffffffffff1673ffffffffffffffffffffffffffffffffffffffff163373ffffffffffffffffffffffffffffffffffffffff161415151561091957600080fd5b60006001600084815260200190815260200160002060040160006101000a81548160ff0219169083151502179055505050565b60008081548092919060010191905055506101406040519081016040528060005481526020018781526020018681526020018581526020016001151581526020018473ffffffffffffffffffffffffffffffffffffffff168152602001838152602001828152602001600073ffffffffffffffffffffffffffffffffffffffff168152602001838152506001600080548152602001908152602001600020600082015181600001556020820151816001019080519060200190610a10929190610b24565b506040820151816002019080519060200190610a2d929190610b24565b506060820151816003019080519060200190610a4a929190610b24565b5060808201518160040160006101000a81548160ff02191690831515021790555060a08201518160040160016101000a81548173ffffffffffffffffffffffffffffffffffffffff021916908373ffffffffffffffffffffffffffffffffffffffff16021790555060c0820151816005015560e082015181600601556101008201518160070160006101000a81548173ffffffffffffffffffffffffffffffffffffffff021916908373ffffffffffffffffffffffffffffffffffffffff1602179055506101208201518160080155905050505050505050565b828054600181600116156101000203166002900490600052602060002090601f016020900481019282601f10610b6557805160ff1916838001178555610b93565b82800160010185558215610b93579182015b82811115610b92578251825591602001919060010190610b77565b5b509050610ba09190610ba4565b5090565b610bc691905b80821115610bc2576000816000905550600101610baa565b5090565b9056fea165627a7a72305820cf1b8fa3eb048931e5749a3e95d044674ea1008bf72b34b2e76c4b0ea86fbf050029",
  "source": "pragma solidity ^0.5.0;\n\ncontract Auction {\n    \n    struct Item {\n        uint id;                            //Item's ID\n        string name;                        //Item's name\n        string description;                 //Item's description\n        string imgPath;                     //Item's image path\n        bool inProgress;                    //Is auction in progress\n        \n        address owner;\n        uint askingPrice;\n        uint updatePrice;\n        \n        address highestBidder;\n        uint bidPrice;\n        \n    }\n    \n    uint public itemsCount;\n    mapping(uint => Item) public items;\n    \n    event addItemEvent ();\n    \n    // Constructor\n    constructor() public {\n        addItem(\"IPhone X\", \"IPhone X\", \"img/i1.png\", address(0), 1000, 100);\n        addItem(\"Watch\", \"Watch\", \"img/i2.png\", address(0), 2000, 100);\n    }\n\n    modifier onlyOwner(uint _id) {\n        require (msg.sender != items[_id].owner);\n        _;\n    }\n\n    function addItem(string memory _name, string memory _description, string memory _imgPath, address _owner, uint _askingPrice, uint _updatePrice) private {\n        itemsCount ++;\n        items[itemsCount] = Item(itemsCount, _name, _description, _imgPath, true, _owner, _askingPrice, _updatePrice, address(0), _askingPrice);\n    }\n    \n    function closeBid(uint _id) onlyOwner(_id) public{\n        items[_id].inProgress = false;\n    }\n    \n    function bid(uint _id) public{\n    \n        require(items[_id].inProgress);\n        //require(_bidPrice > items[_id].askingPrice && _bidPrice > items[_id].bidPrice);\n        \n        items[_id].bidPrice += items[_id].updatePrice;\n        items[_id].highestBidder = msg.sender;\n    \n    }\n    function newItem(string memory _name, string memory _description, string memory _imgPath, uint _askingPrice, uint _updatePrice) public {\n        addItem(_name, _description, _imgPath, msg.sender, _askingPrice, _updatePrice);\n        emit addItemEvent();\n    }\n}",
  "sourcePath": "/Users/rayso/Desktop/Dapp/auction/contracts/Auction.sol",
  "compiler": {
    "name": "solc",
    "version": "0.5.0+commit.1d4f565a.Emscripten.clang"
  },
  "schemaVersion": "3.0.2",
  "updatedAt": "2019-03-23T03:44:03.465Z",
  "devdoc": {
    "methods": {}
  },
  "userdoc": {
    "methods": {}
  }
}