{
  "contractName": "Auction",
  "abi": [
    {
      "constant": true,
      "inputs": [
        {
          "name": "",
          "type": "uint256"
        }
      ],
      "name": "items",
      "outputs": [
        {
          "name": "id",
          "type": "uint256"
        },
        {
          "name": "name",
          "type": "string"
        },
        {
          "name": "imgPath",
          "type": "string"
        },
        {
          "name": "inProgress",
          "type": "bool"
        },
        {
          "name": "owner",
          "type": "address"
        },
        {
          "name": "askingPrice",
          "type": "uint256"
        },
        {
          "name": "highestBidder",
          "type": "address"
        },
        {
          "name": "bidPrice",
          "type": "uint256"
        }
      ],
      "payable": false,
      "stateMutability": "view",
      "type": "function",
      "signature": "0xbfb231d2"
    },
    {
      "constant": true,
      "inputs": [],
      "name": "itemsCount",
      "outputs": [
        {
          "name": "",
          "type": "uint256"
        }
      ],
      "payable": false,
      "stateMutability": "view",
      "type": "function",
      "signature": "0xe2c03ace"
    },
    {
      "inputs": [],
      "payable": false,
      "stateMutability": "nonpayable",
      "type": "constructor",
      "signature": "constructor"
    },
    {
      "constant": false,
      "inputs": [
        {
          "name": "_name",
          "type": "string"
        },
        {
          "name": "_imgPath",
          "type": "string"
        },
        {
          "name": "_askingPrice",
          "type": "uint256"
        }
      ],
      "name": "addItem",
      "outputs": [],
      "payable": false,
      "stateMutability": "nonpayable",
      "type": "function",
      "signature": "0x64432eb8"
    },
    {
      "constant": false,
      "inputs": [
        {
          "name": "_id",
          "type": "uint256"
        }
      ],
      "name": "closeBid",
      "outputs": [],
      "payable": false,
      "stateMutability": "nonpayable",
      "type": "function",
      "signature": "0xf6a89810"
    },
    {
      "constant": false,
      "inputs": [
        {
          "name": "_id",
          "type": "uint256"
        },
        {
          "name": "_bidPrice",
          "type": "uint256"
        }
      ],
      "name": "bid",
      "outputs": [],
      "payable": false,
      "stateMutability": "nonpayable",
      "type": "function",
      "signature": "0x598647f8"
    }
  ],
  "bytecode": "0x608060405234801561001057600080fd5b506100976040805190810160405280600881526020017f4950686f6e6520580000000000000000000000000000000000000000000000008152506040805190810160405280600a81526020017f696d672f69312e706e67000000000000000000000000000000000000000000008152506103e8610122640100000000026401000000009004565b61011d6040805190810160405280600581526020017f57617463680000000000000000000000000000000000000000000000000000008152506040805190810160405280600a81526020017f696d672f69322e706e67000000000000000000000000000000000000000000008152506107d0610122640100000000026401000000009004565b610368565b60008081548092919060010191905055506101006040519081016040528060005481526020018481526020018381526020016001151581526020013373ffffffffffffffffffffffffffffffffffffffff168152602001828152602001600073ffffffffffffffffffffffffffffffffffffffff168152602001600081525060016000805481526020019081526020016000206000820151816000015560208201518160010190805190602001906101db9291906102c3565b5060408201518160020190805190602001906101f89291906102c3565b5060608201518160030160006101000a81548160ff02191690831515021790555060808201518160030160016101000a81548173ffffffffffffffffffffffffffffffffffffffff021916908373ffffffffffffffffffffffffffffffffffffffff16021790555060a0820151816004015560c08201518160050160006101000a81548173ffffffffffffffffffffffffffffffffffffffff021916908373ffffffffffffffffffffffffffffffffffffffff16021790555060e08201518160060155905050505050565b828054600181600116156101000203166002900490600052602060002090601f016020900481019282601f1061030457805160ff1916838001178555610332565b82800160010185558215610332579182015b82811115610331578251825591602001919060010190610316565b5b50905061033f9190610343565b5090565b61036591905b80821115610361576000816000905550600101610349565b5090565b90565b6109f6806103776000396000f3fe60806040526004361061006d576000357c0100000000000000000000000000000000000000000000000000000000900463ffffffff168063598647f81461007257806364432eb8146100b7578063bfb231d214610220578063e2c03ace146103c6578063f6a89810146103f1575b600080fd5b34801561007e57600080fd5b506100b56004803603604081101561009557600080fd5b81019080803590602001909291908035906020019092919050505061042c565b005b3480156100c357600080fd5b5061021e600480360360608110156100da57600080fd5b81019080803590602001906401000000008111156100f757600080fd5b82018360208201111561010957600080fd5b8035906020019184600183028401116401000000008311171561012b57600080fd5b91908080601f016020809104026020016040519081016040528093929190818152602001838380828437600081840152601f19601f8201169050808301925050505050505091929192908035906020019064010000000081111561018e57600080fd5b8201836020820111156101a057600080fd5b803590602001918460018302840111640100000000831117156101c257600080fd5b91908080601f016020809104026020016040519081016040528093929190818152602001838380828437600081840152601f19601f82011690508083019250505050505050919291929080359060200190929190505050610514565b005b34801561022c57600080fd5b506102596004803603602081101561024357600080fd5b81019080803590602001909291905050506106b5565b604051808981526020018060200180602001881515151581526020018773ffffffffffffffffffffffffffffffffffffffff1673ffffffffffffffffffffffffffffffffffffffff1681526020018681526020018573ffffffffffffffffffffffffffffffffffffffff1673ffffffffffffffffffffffffffffffffffffffff16815260200184815260200183810383528a818151815260200191508051906020019080838360005b8381101561031d578082015181840152602081019050610302565b50505050905090810190601f16801561034a5780820380516001836020036101000a031916815260200191505b50838103825289818151815260200191508051906020019080838360005b83811015610383578082015181840152602081019050610368565b50505050905090810190601f1680156103b05780820380516001836020036101000a031916815260200191505b509a505050505050505050505060405180910390f35b3480156103d257600080fd5b506103db61087a565b6040518082815260200191505060405180910390f35b3480156103fd57600080fd5b5061042a6004803603602081101561041457600080fd5b8101908080359060200190929190505050610880565b005b6001600083815260200190815260200160002060030160009054906101000a900460ff16151561045b57600080fd5b6001600083815260200190815260200160002060040154811180156104955750600160008381526020019081526020016000206006015481115b15156104a057600080fd5b806001600084815260200190815260200160002060060181905550336001600084815260200190815260200160002060050160006101000a81548173ffffffffffffffffffffffffffffffffffffffff021916908373ffffffffffffffffffffffffffffffffffffffff1602179055505050565b60008081548092919060010191905055506101006040519081016040528060005481526020018481526020018381526020016001151581526020013373ffffffffffffffffffffffffffffffffffffffff168152602001828152602001600073ffffffffffffffffffffffffffffffffffffffff168152602001600081525060016000805481526020019081526020016000206000820151816000015560208201518160010190805190602001906105cd929190610925565b5060408201518160020190805190602001906105ea929190610925565b5060608201518160030160006101000a81548160ff02191690831515021790555060808201518160030160016101000a81548173ffffffffffffffffffffffffffffffffffffffff021916908373ffffffffffffffffffffffffffffffffffffffff16021790555060a0820151816004015560c08201518160050160006101000a81548173ffffffffffffffffffffffffffffffffffffffff021916908373ffffffffffffffffffffffffffffffffffffffff16021790555060e08201518160060155905050505050565b6001602052806000526040600020600091509050806000015490806001018054600181600116156101000203166002900480601f0160208091040260200160405190810160405280929190818152602001828054600181600116156101000203166002900480156107675780601f1061073c57610100808354040283529160200191610767565b820191906000526020600020905b81548152906001019060200180831161074a57829003601f168201915b505050505090806002018054600181600116156101000203166002900480601f0160208091040260200160405190810160405280929190818152602001828054600181600116156101000203166002900480156108055780601f106107da57610100808354040283529160200191610805565b820191906000526020600020905b8154815290600101906020018083116107e857829003601f168201915b5050505050908060030160009054906101000a900460ff16908060030160019054906101000a900473ffffffffffffffffffffffffffffffffffffffff16908060040154908060050160009054906101000a900473ffffffffffffffffffffffffffffffffffffffff16908060060154905088565b60005481565b806001600082815260200190815260200160002060030160019054906101000a900473ffffffffffffffffffffffffffffffffffffffff1673ffffffffffffffffffffffffffffffffffffffff163373ffffffffffffffffffffffffffffffffffffffff16141515156108f257600080fd5b60006001600084815260200190815260200160002060030160006101000a81548160ff0219169083151502179055505050565b828054600181600116156101000203166002900490600052602060002090601f016020900481019282601f1061096657805160ff1916838001178555610994565b82800160010185558215610994579182015b82811115610993578251825591602001919060010190610978565b5b5090506109a191906109a5565b5090565b6109c791905b808211156109c35760008160009055506001016109ab565b5090565b9056fea165627a7a7230582031ea4216eaf572e6c02d06627b17e69f8f329d02cc90554703687c8759a96f210029",
  "source": "pragma solidity ^0.5.0;\n\ncontract Auction {\n    \n    \n    struct Item {\n        uint id;                            //Item's ID\n        string name;                        //Item's name\n        string imgPath;                     //Item's image path\n        bool inProgress;                    //Is auction in progress\n        \n        address owner;\n        uint askingPrice;\n        \n        address highestBidder;\n        uint bidPrice;\n        \n    }\n    \n    uint public itemsCount;\n    \n    mapping(uint => Item) public items;\n    \n    // Constructor\n    constructor() public {\n        addItem(\"IPhone X\", \"img/i1.png\", 1000);\n        addItem(\"Watch\", \"img/i2.png\", 2000);\n    }\n\n    modifier onlyOwner(uint _id) {\n        require (msg.sender != items[_id].owner);\n        _;\n    }\n\n    function addItem(string memory _name, string memory _imgPath, uint _askingPrice) public {\n        itemsCount ++;\n        items[itemsCount] = Item(itemsCount, _name, _imgPath, true, msg.sender, _askingPrice, address(0), 0);\n    }\n    \n    function closeBid(uint _id) onlyOwner(_id) public{\n        items[_id].inProgress = false;\n    }\n    \n    function bid(uint _id, uint _bidPrice) public{\n    \n        require(items[_id].inProgress);\n        require(_bidPrice > items[_id].askingPrice && _bidPrice > items[_id].bidPrice);\n        \n        items[_id].bidPrice = _bidPrice;\n        items[_id].highestBidder = msg.sender;\n    \n    }\n}",
  "sourcePath": "/Users/rayso/Desktop/Dapp/auction/contracts/Auction.sol",
  "compiler": {
    "name": "solc",
    "version": "0.5.0+commit.1d4f565a.Emscripten.clang"
  },
  "schemaVersion": "3.0.2",
  "updatedAt": "2019-03-15T06:26:45.087Z",
  "devdoc": {
    "methods": {}
  },
  "userdoc": {
    "methods": {}
  }
}