{
  "contractName": "Auction",
  "abi": [
    {
      "constant": true,
      "inputs": [
        {
          "name": "",
          "type": "uint256"
        }
      ],
      "name": "items",
      "outputs": [
        {
          "name": "id",
          "type": "uint256"
        },
        {
          "name": "name",
          "type": "string"
        },
        {
          "name": "description",
          "type": "string"
        },
        {
          "name": "imgPath",
          "type": "string"
        },
        {
          "name": "inProgress",
          "type": "bool"
        },
        {
          "name": "owner",
          "type": "address"
        },
        {
          "name": "askingPrice",
          "type": "uint256"
        },
        {
          "name": "updatePrice",
          "type": "uint256"
        },
        {
          "name": "highestBidder",
          "type": "address"
        },
        {
          "name": "bidPrice",
          "type": "uint256"
        }
      ],
      "payable": false,
      "stateMutability": "view",
      "type": "function",
      "signature": "0xbfb231d2"
    },
    {
      "constant": true,
      "inputs": [],
      "name": "itemsCount",
      "outputs": [
        {
          "name": "",
          "type": "uint256"
        }
      ],
      "payable": false,
      "stateMutability": "view",
      "type": "function",
      "signature": "0xe2c03ace"
    },
    {
      "inputs": [],
      "payable": false,
      "stateMutability": "nonpayable",
      "type": "constructor",
      "signature": "constructor"
    },
    {
      "anonymous": false,
      "inputs": [],
      "name": "itemEvent",
      "type": "event",
      "signature": "0x0a28494e07e4be88b100cf2f90516662a891a793b413ebfd087888ac4daf206a"
    },
    {
      "constant": false,
      "inputs": [
        {
          "name": "_name",
          "type": "string"
        },
        {
          "name": "_description",
          "type": "string"
        },
        {
          "name": "_imgPath",
          "type": "string"
        },
        {
          "name": "_askingPrice",
          "type": "uint256"
        },
        {
          "name": "_updatePrice",
          "type": "uint256"
        }
      ],
      "name": "newItem",
      "outputs": [],
      "payable": false,
      "stateMutability": "nonpayable",
      "type": "function",
      "signature": "0xc906a5de"
    },
    {
      "constant": false,
      "inputs": [
        {
          "name": "_id",
          "type": "uint256"
        }
      ],
      "name": "closeBid",
      "outputs": [],
      "payable": false,
      "stateMutability": "nonpayable",
      "type": "function",
      "signature": "0xf6a89810"
    },
    {
      "constant": false,
      "inputs": [
        {
          "name": "_id",
          "type": "uint256"
        }
      ],
      "name": "bidItem",
      "outputs": [],
      "payable": false,
      "stateMutability": "nonpayable",
      "type": "function",
      "signature": "0x36d64076"
    },
    {
      "constant": false,
      "inputs": [
        {
          "name": "_id",
          "type": "uint256"
        }
      ],
      "name": "payItem",
      "outputs": [],
      "payable": false,
      "stateMutability": "nonpayable",
      "type": "function",
      "signature": "0x85c808d8"
    }
  ],
  "bytecode": "0x60806040523480156200001157600080fd5b5060008081548092919060010191905055506101406040519081016040528060005481526020016040805190810160405280600881526020017f4950686f6e65205800000000000000000000000000000000000000000000000081525081526020016040805190810160405280601b81526020017f54686973206973204170706c652773206e6577204950686f6e6521000000000081525081526020016040805190810160405280600a81526020017f696d672f69312e706e67000000000000000000000000000000000000000000008152508152602001600115158152602001600073ffffffffffffffffffffffffffffffffffffffff1681526020016103e881526020016101f48152602001600073ffffffffffffffffffffffffffffffffffffffff1681526020016103e881525060016000805481526020019081526020016000206000820151816000015560208201518160010190805190602001906200017e92919062000510565b5060408201518160020190805190602001906200019d92919062000510565b506060820151816003019080519060200190620001bc92919062000510565b5060808201518160040160006101000a81548160ff02191690831515021790555060a08201518160040160016101000a81548173ffffffffffffffffffffffffffffffffffffffff021916908373ffffffffffffffffffffffffffffffffffffffff16021790555060c0820151816005015560e082015181600601556101008201518160070160006101000a81548173ffffffffffffffffffffffffffffffffffffffff021916908373ffffffffffffffffffffffffffffffffffffffff160217905550610120820151816008015590505060008081548092919060010191905055506101406040519081016040528060005481526020016040805190810160405280600581526020017f576174636800000000000000000000000000000000000000000000000000000081525081526020016040805190810160405280601881526020017f5468697320616e20657870656e7369766520776174636821000000000000000081525081526020016040805190810160405280600a81526020017f696d672f69322e706e67000000000000000000000000000000000000000000008152508152602001600115158152602001600073ffffffffffffffffffffffffffffffffffffffff1681526020016107d081526020016103e88152602001600073ffffffffffffffffffffffffffffffffffffffff1681526020016107d08152506001600080548152602001908152602001600020600082015181600001556020820151816001019080519060200190620003fa92919062000510565b5060408201518160020190805190602001906200041992919062000510565b5060608201518160030190805190602001906200043892919062000510565b5060808201518160040160006101000a81548160ff02191690831515021790555060a08201518160040160016101000a81548173ffffffffffffffffffffffffffffffffffffffff021916908373ffffffffffffffffffffffffffffffffffffffff16021790555060c0820151816005015560e082015181600601556101008201518160070160006101000a81548173ffffffffffffffffffffffffffffffffffffffff021916908373ffffffffffffffffffffffffffffffffffffffff1602179055506101208201518160080155905050620005bf565b828054600181600116156101000203166002900490600052602060002090601f016020900481019282601f106200055357805160ff191683800117855562000584565b8280016001018555821562000584579182015b828111156200058357825182559160200191906001019062000566565b5b50905062000593919062000597565b5090565b620005bc91905b80821115620005b85760008160009055506001016200059e565b5090565b90565b6110a380620005cf6000396000f3fe608060405260043610610078576000357c0100000000000000000000000000000000000000000000000000000000900463ffffffff16806336d640761461007d57806385c808d8146100b8578063bfb231d2146100f3578063c906a5de1461030c578063e2c03ace14610516578063f6a8981014610541575b600080fd5b34801561008957600080fd5b506100b6600480360360208110156100a057600080fd5b810190808035906020019092919050505061057c565b005b3480156100c457600080fd5b506100f1600480360360208110156100db57600080fd5b81019080803590602001909291905050506107cd565b005b3480156100ff57600080fd5b5061012c6004803603602081101561011657600080fd5b810190808035906020019092919050505061099e565b604051808b81526020018060200180602001806020018a1515151581526020018973ffffffffffffffffffffffffffffffffffffffff1673ffffffffffffffffffffffffffffffffffffffff1681526020018881526020018781526020018673ffffffffffffffffffffffffffffffffffffffff1673ffffffffffffffffffffffffffffffffffffffff16815260200185815260200184810384528d818151815260200191508051906020019080838360005b838110156101fa5780820151818401526020810190506101df565b50505050905090810190601f1680156102275780820380516001836020036101000a031916815260200191505b5084810383528c818151815260200191508051906020019080838360005b83811015610260578082015181840152602081019050610245565b50505050905090810190601f16801561028d5780820380516001836020036101000a031916815260200191505b5084810382528b818151815260200191508051906020019080838360005b838110156102c65780820151818401526020810190506102ab565b50505050905090810190601f1680156102f35780820380516001836020036101000a031916815260200191505b509d505050505050505050505050505060405180910390f35b34801561031857600080fd5b50610514600480360360a081101561032f57600080fd5b810190808035906020019064010000000081111561034c57600080fd5b82018360208201111561035e57600080fd5b8035906020019184600183028401116401000000008311171561038057600080fd5b91908080601f016020809104026020016040519081016040528093929190818152602001838380828437600081840152601f19601f820116905080830192505050505050509192919290803590602001906401000000008111156103e357600080fd5b8201836020820111156103f557600080fd5b8035906020019184600183028401116401000000008311171561041757600080fd5b91908080601f016020809104026020016040519081016040528093929190818152602001838380828437600081840152601f19601f8201169050808301925050505050505091929192908035906020019064010000000081111561047a57600080fd5b82018360208201111561048c57600080fd5b803590602001918460018302840111640100000000831117156104ae57600080fd5b91908080601f016020809104026020016040519081016040528093929190818152602001838380828437600081840152601f19601f8201169050808301925050505050505091929192908035906020019092919080359060200190929190505050610c07565b005b34801561052257600080fd5b5061052b610e0a565b6040518082815260200191505060405180910390f35b34801561054d57600080fd5b5061057a6004803603602081101561056457600080fd5b8101908080359060200190929190505050610e10565b005b8060008015156001600084815260200190815260200160002060040160019054906101000a900473ffffffffffffffffffffffffffffffffffffffff1673ffffffffffffffffffffffffffffffffffffffff163373ffffffffffffffffffffffffffffffffffffffff16141515148161062a576040805190810160405280600d81526020017f4e6f7420666f72206f776e657200000000000000000000000000000000000000815250610661565b6040805190810160405280600e81526020017f466f72206f776e6572206f6e6c790000000000000000000000000000000000008152505b901515610709576040517f08c379a00000000000000000000000000000000000000000000000000000000081526004018080602001828103825283818151815260200191508051906020019080838360005b838110156106ce5780820151818401526020810190506106b3565b50505050905090810190601f1680156106fb5780820380516001836020036101000a031916815260200191505b509250505060405180910390fd5b506001600084815260200190815260200160002060040160009054906101000a900460ff16151561073957600080fd5b60016000848152602001908152602001600020600601546001600085815260200190815260200160002060080160008282540192505081905550336001600085815260200190815260200160002060070160006101000a81548173ffffffffffffffffffffffffffffffffffffffff021916908373ffffffffffffffffffffffffffffffffffffffff160217905550505050565b6001600082815260200190815260200160002060070160009054906101000a900473ffffffffffffffffffffffffffffffffffffffff1673ffffffffffffffffffffffffffffffffffffffff163373ffffffffffffffffffffffffffffffffffffffff1614151561083d57600080fd5b6001600082815260200190815260200160002060040160009054906101000a900460ff1615151561086d57600080fd5b60008073ffffffffffffffffffffffffffffffffffffffff1663a9059cbb6001600085815260200190815260200160002060040160019054906101000a900473ffffffffffffffffffffffffffffffffffffffff1660016000868152602001908152602001600020600801546040518363ffffffff167c0100000000000000000000000000000000000000000000000000000000028152600401808373ffffffffffffffffffffffffffffffffffffffff1673ffffffffffffffffffffffffffffffffffffffff16815260200182815260200192505050602060405180830381600087803b15801561095e57600080fd5b505af1158015610972573d6000803e3d6000fd5b505050506040513d602081101561098857600080fd5b8101908080519060200190929190505050505050565b6001602052806000526040600020600091509050806000015490806001018054600181600116156101000203166002900480601f016020809104026020016040519081016040528092919081815260200182805460018160011615610100020316600290048015610a505780601f10610a2557610100808354040283529160200191610a50565b820191906000526020600020905b815481529060010190602001808311610a3357829003601f168201915b505050505090806002018054600181600116156101000203166002900480601f016020809104026020016040519081016040528092919081815260200182805460018160011615610100020316600290048015610aee5780601f10610ac357610100808354040283529160200191610aee565b820191906000526020600020905b815481529060010190602001808311610ad157829003601f168201915b505050505090806003018054600181600116156101000203166002900480601f016020809104026020016040519081016040528092919081815260200182805460018160011615610100020316600290048015610b8c5780601f10610b6157610100808354040283529160200191610b8c565b820191906000526020600020905b815481529060010190602001808311610b6f57829003601f168201915b5050505050908060040160009054906101000a900460ff16908060040160019054906101000a900473ffffffffffffffffffffffffffffffffffffffff16908060050154908060060154908060070160009054906101000a900473ffffffffffffffffffffffffffffffffffffffff1690806008015490508a565b60008081548092919060010191905055506101406040519081016040528060005481526020018681526020018581526020018481526020016001151581526020013373ffffffffffffffffffffffffffffffffffffffff168152602001838152602001828152602001600073ffffffffffffffffffffffffffffffffffffffff168152602001838152506001600080548152602001908152602001600020600082015181600001556020820151816001019080519060200190610ccb929190610fd2565b506040820151816002019080519060200190610ce8929190610fd2565b506060820151816003019080519060200190610d05929190610fd2565b5060808201518160040160006101000a81548160ff02191690831515021790555060a08201518160040160016101000a81548173ffffffffffffffffffffffffffffffffffffffff021916908373ffffffffffffffffffffffffffffffffffffffff16021790555060c0820151816005015560e082015181600601556101008201518160070160006101000a81548173ffffffffffffffffffffffffffffffffffffffff021916908373ffffffffffffffffffffffffffffffffffffffff16021790555061012082015181600801559050507f0a28494e07e4be88b100cf2f90516662a891a793b413ebfd087888ac4daf206a60405160405180910390a15050505050565b60005481565b8060018015156001600084815260200190815260200160002060040160019054906101000a900473ffffffffffffffffffffffffffffffffffffffff1673ffffffffffffffffffffffffffffffffffffffff163373ffffffffffffffffffffffffffffffffffffffff161415151481610ebe576040805190810160405280600d81526020017f4e6f7420666f72206f776e657200000000000000000000000000000000000000815250610ef5565b6040805190810160405280600e81526020017f466f72206f776e6572206f6e6c790000000000000000000000000000000000008152505b901515610f9d576040517f08c379a00000000000000000000000000000000000000000000000000000000081526004018080602001828103825283818151815260200191508051906020019080838360005b83811015610f62578082015181840152602081019050610f47565b50505050905090810190601f168015610f8f5780820380516001836020036101000a031916815260200191505b509250505060405180910390fd5b5060006001600085815260200190815260200160002060040160006101000a81548160ff021916908315150217905550505050565b828054600181600116156101000203166002900490600052602060002090601f016020900481019282601f1061101357805160ff1916838001178555611041565b82800160010185558215611041579182015b82811115611040578251825591602001919060010190611025565b5b50905061104e9190611052565b5090565b61107491905b80821115611070576000816000905550600101611058565b5090565b9056fea165627a7a7230582088b07f5ffd93c564954e3508096c4750f37519f2a08af68138631368b8c8624f0029",
  "source": "pragma solidity ^0.5.0;\n\nimport \"./BidToken.sol\";\n\ncontract Auction {\n    \n    struct Item {\n        uint id;                            //Item's ID\n        string name;                        //Item's name\n        string description;                 //Item's description\n        string imgPath;                     //Item's image path\n        bool inProgress;                    //Is auction in progress\n        \n        address owner;\n        uint askingPrice;\n        uint updatePrice;\n        \n        address highestBidder;\n        uint bidPrice;\n        \n    }\n    \n    uint public itemsCount;\n    mapping(uint => Item) public items;\n    \n    \n    event itemEvent ();\n    \n    // Constructor\n    constructor() public {    \n        \n        itemsCount ++;\n        items[itemsCount] = Item(itemsCount, \"IPhone X\", \"This is Apple's new IPhone!\", \"img/i1.png\", true, address(0), 1000, 500, address(0), 1000);\n        \n        itemsCount ++;\n        items[itemsCount] = Item(itemsCount, \"Watch\", \"This an expensive watch!\", \"img/i2.png\", true, address(0), 2000, 1000, address(0), 2000);\n        \n        \n    }\n\n    function newItem(string memory _name, string memory _description, string memory _imgPath, uint _askingPrice, uint _updatePrice) public {\n  \n        itemsCount ++;\n        items[itemsCount] = Item(itemsCount, _name, _description, _imgPath, true, msg.sender, _askingPrice, _updatePrice, address(0), _askingPrice);\n  \n        emit itemEvent();\n    }\n    \n    modifier checkUserType(uint _id, bool ownerOrBidder) {                        //true for owner and false bidder\n        require ((msg.sender == items[_id].owner) == ownerOrBidder, ownerOrBidder ? \"For owner only\" : \"Not for owner\");\n        _;\n    }\n    \n    function closeBid(uint _id) checkUserType(_id, true) public{\n        items[_id].inProgress = false;\n    }\n    \n    function bidItem(uint _id) checkUserType(_id, false) public{\n   \n        require(items[_id].inProgress);\n        \n        items[_id].bidPrice += items[_id].updatePrice;\n        items[_id].highestBidder = msg.sender;\n    \n    }\n    \n    function payItem(uint _id) public {\n        require(msg.sender == items[_id].highestBidder);\n        require(!items[_id].inProgress);\n        \n        BidToken b;\n        b.transfer(items[_id].owner, items[_id].bidPrice);\n    }\n    \n    \n}",
  "sourcePath": "/Users/rayso/Desktop/Dapp/auction/contracts/Auction.sol",
  "compiler": {
    "name": "solc",
    "version": "0.5.0+commit.1d4f565a.Emscripten.clang"
  },
  "schemaVersion": "3.0.2",
  "updatedAt": "2019-04-02T00:32:06.549Z",
  "devdoc": {
    "methods": {}
  },
  "userdoc": {
    "methods": {}
  }
}